:1000000015C100002EC100002CC100002AC1000053
:1000100028C1000026C1000024C1000022C1000048
:1000200020C100001EC10000FCC500001AC1000074
:1000300018C1000016C1000014C1000012C1000068
:1000400010C100000EC100000CC100000AC1000078
:1000500008C1000006C1000004C1000002C1000088
:1000600000C100002BC10000FCC00000FAC000006D
:10007000F8C00000F6C00000F4C00000F2C00000AC
:10008000F0C00000EEC00000ECC00000EAC00000BC
:10009000E8C00000E6C00000E4C00000E2C00000CC
:1000A000E0C00000DEC00000DCC00000FE0620074B
:1000B000070820070708650787070708D907EB0720
:1000C00003212703110600000000000000000000CB
:1000D00000000D0D000000000D8403000000000072
:1000E0000000000000000000000000000000000010
:1000F000F3003838000000003E03470032003900AA
:100100002000440072006900760069006E006700FC
:10011000200046006F00720063006500200052005E
:100120006100630069006E006700200057006800EE
:10013000650065006C00000012034C006F00670052
:10014000690074006500630068000000040309048E
:1001500009022900010100C0640904000002030033
:10016000000009211001000122A0000705840340BE
:10017000000507050303400005120100010000000F
:10018000406D0460C200890102000105010904A15B
:100190000185010930093109320935150026FF00B2
:1001A0007508950481020939150025073500463B7D
:1001B000016514750495018142650005091901293D
:1001C0000E150025017501950E81020600FF09201C
:1001D000750695018102050109330934150026FFD2
:1001E000007508950281020600FF092195368102FB
:1001F00085050922951F910285030A2127952FB1B4
:1002000002C006F0FF0940A10185F00947953FB102
:100210000285F10948953FB10285F20949950FB170
:100220000285F30A01479507B102C00011241FBEE1
:10023000CFEFDAE0DEBFCDBF11E0A0E0B1E0E4EA4D
:10024000F0E102C005900D92A238B107D9F722E083
:10025000A2E8B1E001C01D92A931B207E1F71ED2B8
:100260001FC7CECE8091C80085FFFCCF84E4809369
:10027000CE008091110287FF06C08091C80085FFE3
:10028000FCCF88E007C080911702885F9091C8007A
:1002900095FFFCCF8093CE0068E070E081E192E0B2
:1002A000E9C65E9AF89498E088E10FB6F894A895AC
:1002B000809360000FBE90936000FFCF1F920F925B
:1002C0000FB60F9211242F933F934F935F936F9329
:1002D0007F938F939F93AF93BF93EF93FF938091FF
:1002E000CE00809305028091C80087FFFCCF8091EB
:1002F000CE0080930402809105028F3F19F482E4BE
:1003000091E002C082EC91E090930A02809309028E
:100310002091090230910A02809108029091040212
:10032000891778F491E0980F90930802F901E80F8B
:10033000F11D8091C80087FFFCCF8091CE008083A3
:10034000EBCF1092080280910502833309F442C07A
:1003500028F48131A1F0823231F15AC0853509F497
:1003600053C08F3F09F451C0843409F051C081E07B
:1003700080930302809104028093020249C080911D
:10038000C80085FFFCCF81E18093CE008091C8003A
:1003900085FFFCCF81E08093CE008091C80085FF6F
:1003A000FCCF89E014C08091C80085FFFCCF82E2B9
:1003B0008093CE008091C80085FFFCCF81E08093C0
:1003C000CE00809106029091C80095FFFCCF8093EB
:1003D000CE001EC08091C80085FFFCCF83E38093D0
:1003E000CE008091C80085FFFCCF81E08093CE00D5
:1003F000809106029091C80095FFFCCF8093CE00BB
:1004000081E08093060204C04CDF81E08093070204
:10041000FF91EF91BF91AF919F918F917F916F91DC
:100420005F914F913F912F910F900FBE0F901F90B2
:10043000189581E090E09093CD008093CC0086E009
:100440008093CA001092C800E9ECF0E088E1808354
:10045000539A5A9A808180688083089514BE0FB69B
:10046000F894A89580916000886180936000109254
:1004700060000FBE90E080E80FB6F89480936100B2
:10048000909361000FBED5DF7894569A8091060252
:100490008823E1F3A9C30895089542E361EC84E061
:1004A000DDD242E360EC83E0D9C2409112024130D8
:1004B00021F0493009F45CC0089580911102813A1D
:1004C00009F08FC02091130230911402333009F0EB
:1004D00088C0C9019927833F91055CF4813F91054C
:1004E00064F40397E9F440930B0260E380EC90E03E
:1004F0002FC0833F910549F113C010920302B2DE71
:10050000809103028823E1F38091E800877F809344
:10051000E8006091020270E082EC91E09AD122C082
:100520008091C80085FFFCCF89E98093CE0080913F
:10053000C80085FFFCCF81E08093CE008091C80089
:1005400085FFFCCF2093CE00089568E080EF90E017
:10055000009709F446C02091E800277F2093E80027
:1005600070E01AD28091E8008B778093E8000895BC
:10057000809111028132A9F58091E800877F8093F4
:10058000E800609117027091180282E891E0C4D1EE
:100590008091E8008E778093E8008091130290911B
:1005A00014029330F1F4803F41F45CDE6091170255
:1005B0007091180282E891E05DC59091C80095FFA6
:1005C000FCCF99E99093CE009091C80095FFFCCFA5
:1005D00091E09093CE009091C80095FFFCCF80935E
:1005E000CE00089584E08093E90080910B02882377
:1005F000B1F080910702882391F08091E80080FF9C
:10060000FCCF40E050E060E470E082E491E08DD007
:10061000109207028091E8008E778093E800089599
:10062000CF93DF9300D0CDB7DEB71A82198283E073
:100630008093E9008091E80082FF24C08091E80067
:1006400085FF0EC0AE014F5F5F4F60E470E082E057
:1006500091E0B5D0811104C080E490E09A83898351
:100660008091E8008B778093E80069817A81611539
:10067000710541F06093010177276E5F7F4F80E045
:1006800091E0F8D40F900F90DF91CF910895809171
:100690001002843011F4A6DFC3CF0895DFDEF7DF48
:1006A000CFD4FDCF292F332723303105E1F05CF47F
:1006B0002130310599F02230310579F589E290E059
:1006C00020E531E02EC02132310511F12232310511
:1006D00021F580EA90E02BE831E023C082E190E050
:1006E00029E731E01EC099278130910541F0823021
:1006F000910541F0892B89F4ECE4F1E005C0E8E3D1
:10070000F1E002C0E8EFF0E0849190E09F0109C0C1
:1007100089E090E022E631E004C080E090E020E053
:1007200030E0FA01318320830895CF92DF92EF9277
:10073000FF920F931F93CF93DF93EC018B017A010C
:10074000E1D1811133C0E114F10439F0F701808166
:100750009181081B190BC80FD91FC12CD12C011571
:10076000110519F18091E80085FD16C08091E8001F
:100770008E778093E80064D4E114F10449F0F70126
:1007800080819181C80ED91ED182C08285E00EC0C1
:10079000B9D1882321F30AC089918093F1000150D7
:1007A0001109FFEFCF1ADF0ADACF80E0DF91CF9196
:1007B0001F910F91FF90EF90DF90CF900895CF920F
:1007C000DF92EF92FF920F931F93CF93DF93EC0191
:1007D0008B017A0197D1811133C0E114F10439F012
:1007E000F70180819181081B190BC80FD91FC12CFB
:1007F000D12C0115110519F18091E80085FD16C075
:100800008091E8008B778093E8001AD4E114F1041A
:1008100049F0F70180819181C80ED91ED182C08232
:1008200085E00EC06FD1882321F30AC08091F100CA
:10083000899301501109FFEFCF1ADF0ADACF80E068
:10084000DF91CF911F910F91FF90EF90DF90CF90AC
:10085000089520911702309118022617370748F0A3
:100860006115710539F42091E8002E772093E80096
:1008700001C0B90140E061157105A9F12091100294
:10088000222309F443C0253009F442C02091E80036
:1008900023FD40C02091E80022FD32C02091E800F5
:1008A00020FFE9CF4091F3002091F20030E0342B9B
:1008B000FC01CF016115710559F02034310540F478
:1008C00081918093F100615071092F5F3F4FF1CF0B
:1008D00041E02034310509F040E02091E8002E7716
:1008E0002093E800C8CF4111C9CF0AC080911002FF
:1008F000882361F0853061F08091E80083FD0AC0B3
:100900008091E80082FFF2CF80E0089582E00895B0
:1009100083E0089581E008956115710529F420911F
:10092000E8002B772093E800FC016115710541F187
:1009300080911002882361F1853061F18091E80097
:1009400083FD24C08091E80082FFEFCF2091F30067
:100950008091F20090E0922B892B31F08091F10090
:1009600081936150710991F78091E8008B778093B2
:10097000E800DBCF80911002882351F0853051F0E0
:100980008091E80080FFF6CF80E0089581E008952F
:1009900082E0089583E008952091170230911802B3
:1009A0002617370748F06115710539F42091E800E2
:1009B0002E772093E80001C0B901FC0120E0611509
:1009C000710599F180911002882309F441C08530A6
:1009D00009F440C08091E80083FD3EC08091E800AA
:1009E00082FD30C08091E80080FFE9CF2091F300C4
:1009F0008091F20090E0922B6115710559F08034DE
:100A0000910540F424912093F100319661507109D1
:100A10000196F2CF21E08034910509F020E0809129
:100A2000E8008E778093E800CACF2111CBCF0AC0AF
:100A300080911002882361F0853061F08091E80098
:100A400083FD0AC08091E80082FFF2CF80E0089524
:100A500082E0089583E0089581E00895982F97300B
:100A600058F59093E900981739F07091EC002091B7
:100A7000ED005091F00003C0242F762F50E021FFAD
:100A800019C03091EB003E7F3093EB003091ED00C8
:100A90003D7F3093ED003091EB0031603093EB00FF
:100AA0007093EC002093ED005093F0002091EE0045
:100AB00027FF07C09F5FD3CF8F708093E90081E04D
:100AC000089580E008958091110287FF11C0809100
:100AD000E80082FD05C0809110028111F8CF11C09D
:100AE0008091E8008B770BC080911002882349F039
:100AF0008091E80080FFF8CF8091E8008E778093A6
:100B0000E80008952091E4003091E50095E64091D9
:100B1000EC00842F817040FF22C08091E80080FDAE
:100B20001CC080911002882391F0853091F0809153
:100B3000EB0085FD10C04091E4005091E5004217A4
:100B4000530729F39A01915011F784E0089582E048
:100B5000089583E0089581E0089580E0089540912C
:100B6000E80042FFDECF08950F931F93CF93DF93EA
:100B70004BD052D0C8EDD0E088818F7788838881B0
:100B80008068888388818F7D888319BC10921002C9
:100B900010920C0210920E0210920D0200EE10E064
:100BA000F80180818B7F808388818160888342E324
:100BB00060E080E053DFE1EEF0E080818E7F8083B3
:100BC000E2EEF0E0808181608083808188608083B4
:100BD000F80180818E7F8083888180618883DF91A6
:100BE000CF911F910F910895E8EDF0E080818F7E05
:100BF0008083E7EDF0E080818160808384E082BFC4
:100C000081E080930F02B0CFE8EDF0E080818E7F2D
:100C100080831092E20008951092DA001092E100B1
:100C200008951F920F920FB60F9211242F933F93A6
:100C30004F935F936F937F938F939F93AF93BF93E4
:100C4000EF93FF938091E10082FF0AC08091E20060
:100C500082FF06C08091E1008B7F8093E100EFD19D
:100C60008091DA0080FF1DC08091D80080FF19C0FC
:100C70008091DA008E7F8093DA008091D90080FF26
:100C80000CC080E189BD82E189BD09B400FEFDCFC1
:100C900081E080931002FFDB04C019BC10921002A7
:100CA000FBDB8091E10080FF18C08091E20080FFB3
:100CB00014C08091E2008E7F8093E2008091E20078
:100CC00080618093E2008091D80080628093D80098
:100CD00019BC85E080931002B2D18091E10084FFBD
:100CE0002FC08091E20084FF2BC080E189BD82E1AA
:100CF00089BD09B400FEFDCF8091D8008F7D80931F
:100D0000D8008091E1008F7E8093E1008091E20025
:100D10008F7E8093E2008091E20081608093E20008
:100D200080910C02882311F084E007C08091E300D9
:100D300087FD02C081E001C083E0809310027FD173
:100D40008091E10083FF22C08091E20083FF1EC0FA
:100D50008091E100877F8093E10082E08093100220
:100D600010920C028091E1008E7F8093E1008091CF
:100D7000E2008E7F8093E2008091E20080618093A8
:100D8000E20042E360E080E069DE59D1FF91EF913B
:100D9000BF91AF919F918F917F916F915F914F9193
:100DA0003F912F910F900FBE0F901F9018951F939A
:100DB000CF93DF93CDB7DEB7AA970FB6F894DEBF17
:100DC0000FBECDBFE1E1F2E088E08E0F9091F1001F
:100DD00091938E13FBCF69DB8091E80083FF17C1ED
:100DE0008091110290911202492F50E04A30510532
:100DF00008F00DC1FA01EA5AFF4F4CC1803881F06A
:100E0000823809F004C1809115028F708093E90047
:100E10008091EB0085FB882780F91092E90006C0DD
:100E200080910D0290910E02911182609091E800E4
:100E3000977F9093E8008093F1001092F100C4C076
:100E4000282F2D7F09F0E3C0882319F0823061F04C
:100E5000DEC080911302813009F0D9C0933009F0CF
:100E600080E080930E022BC080911302811127C075
:100E7000809115028F7009F4CAC08093E900209117
:100E8000EB0020FF1CC0933021F48091EB008062C6
:100E900014C09091EB0090619093EB0021E030E062
:100EA000A90102C0440F551F8A95E2F74093EA005A
:100EB0001092EA008091EB0088608093EB00109222
:100EC000E9008091E800877F82C08111A0C0109165
:100ED00013021F778091E3008078812B8093E300D9
:100EE0008091E800877F8093E800EDDD8091E80045
:100EF00080FFFCCF8091E30080688093E3001111B4
:100F000002C082E001C083E08093100280C080585C
:100F1000823008F07CC080911302909114028C3DC5
:100F200053E0950771F583E08A838AE289834FB79E
:100F3000F894DE01139620E03EE051E2E32FF0E06A
:100F400050935700E49120FF03C0E295EF703F5F9C
:100F5000EF708E2F90E0EA3010F0C79601C0C09677
:100F60008D939D932F5F243149F74FBF8091E80007
:100F7000877F8093E8006AE270E0CE01019669DC29
:100F800012C0AE014F5F5F4F609115028BDBBC0159
:100F9000892B09F43CC09091E800977F9093E8007A
:100FA00089819A81F9DC8091E8008B778093E80051
:100FB0002EC0803861F58091E800877F8093E8003B
:100FC00080910C028093F1008091E8008E778093ED
:100FD000E80079DD1CC081111AC090911302923093
:100FE000B0F48091E800877F8093E80090930C0232
:100FF0006ADD80910C02811106C08091E30087FDBB
:1010000002C081E001C084E08093100246DA809142
:10101000E80083FF0AC08091E800877F8093E800A2
:101020008091EB0080628093EB00AA960FB6F89453
:10103000DEBF0FBECDBFDF91CF911F910895089500
:10104000CF9380911002882399F0C091E900CF706E
:101050009091EC00892F817090FD80E8C82B109250
:10106000E9008091E80083FDA2DECF70C093E90023
:10107000CF910895680F791F8617970751F0FC01EB
:101080002191CF013091C80035FFFCCF2093CE00D5
:10109000F3CF0895EE0FFF1F0590F491E02D099412
:0410A000F894FFCFF2
:1010A400EE0000000000000000000000000000004E
:1010B400000000000000000000000000000000002C
:1010C400000000000000000000000000000000001C
:1010D400000000000000000000000000000000000C
:1010E40000000180808080080000000000000000F3
:1010F40000000000000000000000000000000000EC
:10110400000000000000000000000000000080FF5C
:10111400FFFFFFFFFF00FFFF0000000000000000D2
:021124000000C9
:00000001FF
